{
  "_format": "hh-sol-artifact-1",
  "contractName": "AgentManager",
  "sourceName": "contracts/AgentFactory.sol",
  "abi": [
    {
      "inputs": [],
      "stateMutability": "nonpayable",
      "type": "constructor"
    },
    {
      "anonymous": false,
      "inputs": [
        {
          "indexed": true,
          "internalType": "address",
          "name": "agentAddress",
          "type": "address"
        },
        {
          "indexed": true,
          "internalType": "address",
          "name": "owner",
          "type": "address"
        },
        {
          "indexed": false,
          "internalType": "uint256",
          "name": "agentId",
          "type": "uint256"
        }
      ],
      "name": "AgentDeployed",
      "type": "event"
    },
    {
      "inputs": [],
      "name": "agentCounter",
      "outputs": [
        {
          "internalType": "uint256",
          "name": "",
          "type": "uint256"
        }
      ],
      "stateMutability": "view",
      "type": "function"
    },
    {
      "inputs": [
        {
          "internalType": "uint256",
          "name": "",
          "type": "uint256"
        }
      ],
      "name": "agentIdToAddress",
      "outputs": [
        {
          "internalType": "address",
          "name": "",
          "type": "address"
        }
      ],
      "stateMutability": "view",
      "type": "function"
    },
    {
      "inputs": [
        {
          "internalType": "address",
          "name": "",
          "type": "address"
        },
        {
          "internalType": "uint256",
          "name": "",
          "type": "uint256"
        }
      ],
      "name": "agentsByOwner",
      "outputs": [
        {
          "internalType": "address",
          "name": "agentAddress",
          "type": "address"
        },
        {
          "internalType": "uint256",
          "name": "agentId",
          "type": "uint256"
        },
        {
          "internalType": "string",
          "name": "name",
          "type": "string"
        },
        {
          "internalType": "string",
          "name": "description",
          "type": "string"
        },
        {
          "internalType": "bool",
          "name": "isForTweet",
          "type": "bool"
        }
      ],
      "stateMutability": "view",
      "type": "function"
    },
    {
      "inputs": [
        {
          "internalType": "address",
          "name": "initialOracleAddress",
          "type": "address"
        },
        {
          "internalType": "string",
          "name": "systemPrompt",
          "type": "string"
        },
        {
          "internalType": "string",
          "name": "_name",
          "type": "string"
        },
        {
          "internalType": "string",
          "name": "_description",
          "type": "string"
        },
        {
          "internalType": "bool",
          "name": "_isForTweet",
          "type": "bool"
        }
      ],
      "name": "deployAgent",
      "outputs": [],
      "stateMutability": "nonpayable",
      "type": "function"
    },
    {
      "inputs": [
        {
          "internalType": "uint256",
          "name": "agentId",
          "type": "uint256"
        }
      ],
      "name": "getAgentById",
      "outputs": [
        {
          "internalType": "address",
          "name": "",
          "type": "address"
        }
      ],
      "stateMutability": "view",
      "type": "function"
    },
    {
      "inputs": [
        {
          "internalType": "address",
          "name": "owner",
          "type": "address"
        }
      ],
      "name": "getAgentsByOwner",
      "outputs": [
        {
          "components": [
            {
              "internalType": "address",
              "name": "agentAddress",
              "type": "address"
            },
            {
              "internalType": "uint256",
              "name": "agentId",
              "type": "uint256"
            },
            {
              "internalType": "string",
              "name": "name",
              "type": "string"
            },
            {
              "internalType": "string",
              "name": "description",
              "type": "string"
            },
            {
              "internalType": "bool",
              "name": "isForTweet",
              "type": "bool"
            }
          ],
          "internalType": "struct AgentManager.AgentMetadata[]",
          "name": "",
          "type": "tuple[]"
        }
      ],
      "stateMutability": "view",
      "type": "function"
    },
    {
      "inputs": [],
      "name": "getGlobalAgents",
      "outputs": [
        {
          "components": [
            {
              "internalType": "address",
              "name": "agentAddress",
              "type": "address"
            },
            {
              "internalType": "uint256",
              "name": "agentId",
              "type": "uint256"
            },
            {
              "internalType": "string",
              "name": "name",
              "type": "string"
            },
            {
              "internalType": "string",
              "name": "description",
              "type": "string"
            },
            {
              "internalType": "bool",
              "name": "isForTweet",
              "type": "bool"
            }
          ],
          "internalType": "struct AgentManager.AgentMetadata[]",
          "name": "",
          "type": "tuple[]"
        }
      ],
      "stateMutability": "view",
      "type": "function"
    },
    {
      "inputs": [],
      "name": "managerOwner",
      "outputs": [
        {
          "internalType": "address",
          "name": "",
          "type": "address"
        }
      ],
      "stateMutability": "view",
      "type": "function"
    }
  ],
  "bytecode": "0x6080806040523461002d576000600255600380546001600160a01b0319163317905561359990816100338239f35b600080fdfe60808060405260043610156200001457600080fd5b60003560e01c9081631ab6f88814620007755750806367c7ba3914620007555780636dd31ddd1462000667578063768eb96f14620005a55780638b3facf814620000e6578063929f91d814620000bb578063ba9261ce14620000805763f44c253a146200008057600080fd5b34620000b6576020366003190112620000b6576004356000526001602052602060018060a01b0360406000205416604051908152f35b600080fd5b34620000b6576000366003190112620000b6576003546040516001600160a01b039091168152602090f35b34620000b65760a0366003190112620000b657620001036200085e565b60243567ffffffffffffffff8111620000b6576200012690369060040162000ac8565b9060443567ffffffffffffffff8111620000b6576200014a90369060040162000ac8565b9160643567ffffffffffffffff8111620000b6576200016e90369060040162000ac8565b9060843590811515809203620000b65760405190612a3f908183019083821067ffffffffffffffff8311176200047c576040620001c992859462000b2586396001600160a01b03988916815260208101829052019062000875565b03906000f0938415620005995760025460001981146200058357600101918260025560405193620001fa85620009d6565b858716855260208501938452604085019283526060850152608084015233600052600060205260406000208054680100000000000000008110156200047c576200024a9160018201815562000966565b9290926200056d57835183546001600160a01b0319169086161783555160018301555180519067ffffffffffffffff82116200047c57819062000291600285015462000999565b601f811162000515575b50602090601f83116001146200049e5760009262000492575b50508160011b916000199060031b1c19161760028201555b606082015180519067ffffffffffffffff82116200047c57620002f3600384015462000999565b601f81116200042c575b50602090601f8311600114620003b257918060809492600494600092620003a6575b50508160011b916000199060031b1c19161760038201555b01910151151560ff80198354169116179055600254600052600160205260406000208183166bffffffffffffffffffffffff60a01b8254161790557f1af5253d481c84bac51f5774796b787ac5b2c76b74831b48c5f608a8942d08b960206002549260405193845233941692a3005b0151905088806200031f565b906003840160005260206000209160005b601f1985168110620004135750926080949260019260049583601f19811610620003f9575b505050811b01600382015562000337565b015160001960f88460031b161c19169055888080620003e8565b91926020600181928685015181550194019201620003c3565b600384016000526020600020601f840160051c8101916020851062000471575b601f0160051c01905b818110620004645750620002fd565b6000815560010162000455565b90915081906200044c565b634e487b7160e01b600052604160045260246000fd5b015190508680620002b4565b9250600284016000526020600020906000935b601f1984168510620004f9576001945083601f19811610620004df575b505050811b016002820155620002cc565b015160001960f88460031b161c19169055868080620004ce565b81810151835560209485019460019093019290910190620004b1565b909150600284016000526020600020601f840160051c81016020851062000565575b90849392915b601f830160051c82018110620005555750506200029b565b600081558594506001016200053d565b508062000537565b634e487b7160e01b600052600060045260246000fd5b634e487b7160e01b600052601160045260246000fd5b6040513d6000823e3d90fd5b34620000b6576040366003190112620000b657620005c26200085e565b6001600160a01b039081166000908152602081905260409020805460243590811015620000b657620005f49162000966565b50908154166001820154916200065b620006116002830162000a16565b916200064c60ff6004620006286003850162000a16565b93015416936040519687968752602087015260a0604087015260a086019062000875565b90848203606086015262000875565b90151560808301520390f35b34620000b6576000366003190112620000b65760018060a01b03600390808254166000526020906000825260406000209283549267ffffffffffffffff84116200047c5760409491945194600593620006c58387871b0188620009f3565b8587526000938452828420918388015b878610620006f15760405180620006ed8b82620008b7565b0390f35b86856001926040516200070481620009d6565b8688541681528488015483820152620007206002890162000a16565b60408201526200073286890162000a16565b606082015260ff60048901541615156080820152815201940195019492620006d5565b34620000b6576000366003190112620000b6576020600254604051908152f35b34620000b657602080600319360112620000b6576001600160a01b03806200079c6200085e565b166000526000825260406000209081549267ffffffffffffffff84116200047c5760059291620007d18286861b0187620009f3565b8486526000928352818320908287015b868510620007f95760405180620006ed8a82620008b7565b85846001926040516200080c81620009d6565b8587541681528487015483820152620008286002880162000a16565b60408201526200083b6003880162000a16565b606082015260ff60048801541615156080820152815201930194019391620007e1565b600435906001600160a01b0382168203620000b657565b919082519283825260005b848110620008a2575050826000602080949584010152601f8019910116010190565b60208183018101518483018201520162000880565b602080820190808352835180925260409283810182858560051b8401019601946000925b858410620008ed575050505050505090565b909192939495968580600192603f198582030187528a5190848060a01b038251168152828201518382015262000948620009348884015160a0808b86015284019062000875565b606080850151908483039085015262000875565b916080809101511515910152990194019401929594939190620008db565b805482101562000983576000526005602060002091020190600090565b634e487b7160e01b600052603260045260246000fd5b90600182811c92168015620009cb575b6020831014620009b557565b634e487b7160e01b600052602260045260246000fd5b91607f1691620009a9565b60a0810190811067ffffffffffffffff8211176200047c57604052565b90601f8019910116810190811067ffffffffffffffff8211176200047c57604052565b906040519182600082549262000a2c8462000999565b90818452600194858116908160001462000aa3575060011462000a5c575b505062000a5a92500383620009f3565b565b9093915060005260209081600020936000915b81831062000a8a57505062000a5a9350820101388062000a4a565b8554888401850152948501948794509183019162000a6f565b91505062000a5a94506020925060ff191682840152151560051b820101388062000a4a565b81601f82011215620000b65780359067ffffffffffffffff82116200047c576040519262000b01601f8401601f191660200185620009f3565b82845260208383010111620000b65781600092602080930183860137830101529056fe6080604052346200100b5762002a3f803803806200001d8162001050565b9283398101906040818303126200100b5780516001600160a01b03811691908290036200100b576020810151906001600160401b0382116200100b570182601f820112156200100b578051906001600160401b03821162000921576200008d601f8301601f191660200162001050565b93828552602083830101116200100b5760005b82811062000ff557505060206000918401015260018060a01b0319338160035416176003556004541617600455805160018060401b0381116200092157600054600181811c9116801562000fea575b60208210146200090057601f811162000f92575b50602091601f821160011462000f1d5791819260009262000f11575b50508160011b916000199060031b1c1916176000555b6040516101a081016001600160401b0381118282101762000921576040526200015d62001010565b601381527f6770742d342d747572626f2d707265766965770000000000000000000000000060208201528152601560208201526200019a62001030565b6000815260408201526103e8606082015260156080820152620001bc62001010565b600f81526e7b2274797065223a2274657874227d60881b602082015260a0820152600060c0820152620001ee62001030565b6000815260e0820152600a61010082015260656101208201526040516001600160401b03610200820190811190821117620009215761020081016040526101d381527f5b7b2274797065223a2266756e6374696f6e222c2266756e6374696f6e223a7b60208201527f226e616d65223a227765625f736561726368222c226465736372697074696f6e60408201527f223a225365617263682074686520696e7465726e6574222c22706172616d657460608201527f657273223a7b2274797065223a226f626a656374222c2270726f70657274696560808201527f73223a7b227175657279223a7b2274797065223a22737472696e67222c22646560a08201527f736372697074696f6e223a22536561726368207175657279227d7d2c2272657160c08201527f7569726564223a5b227175657279225d7d7d7d2c7b2274797065223a2266756e60e08201527f6374696f6e222c2266756e6374696f6e223a7b226e616d65223a22696d6167656101008201527f5f67656e65726174696f6e222c226465736372697074696f6e223a2247656e656101208201527f726174657320616e20696d616765207573696e672044616c6c652d32222c22706101408201527f6172616d6574657273223a7b2274797065223a226f626a656374222c2270726f6101608201527f70657274696573223a7b2270726f6d7074223a7b2274797065223a22737472696101808201527f6e67222c226465736372697074696f6e223a2244616c6c652d322070726f6d706101a08201527f7420746f2067656e657261746520616e20696d616765227d7d2c2272657175696101c08201527f726564223a5b2270726f6d7074225d7d7d7d5d000000000000000000000000006101e08201526101408201526200048262001010565b60048152636175746f60e01b6020820152610160820152620004a362001030565b6000815261018082015280518051906001600160401b038211620009215760055490600182811c9216801562000f06575b6020831014620009005781601f84931162000eb0575b50602090601f831160011462000e215760009262000e15575b50508160011b916000199060031b1c1916176005555b602081015160ff19600654169060ff1617600655604081015180519060018060401b038211620009215760075490600182811c9216801562000e0a575b6020831014620009005781601f84931162000da9575b50602090601f831160011462000d2b5760009262000d1f575b50508160011b916000199060031b1c1916176007555b63ffffffff60608201511660085490608083015160201b64ff00000000169164ffffffffff1916171760085560a081015180519060018060401b038211620009215760095490600182811c9216801562000d14575b6020831014620009005781601f84931162000cb3575b50602090601f831160011462000c355760009262000c29575b50508160011b916000199060031b1c1916176009555b60c0810151600a5560e08101518051906001600160401b0382116200092157600b5490600182811c9216801562000c1e575b6020831014620009005781601f84931162000bac575b50602090601f831160011462000b1d5760009262000b11575b50508160011b916000199060031b1c191617600b555b610100810151600c55610120810151600d5561014081015180519091906001600160401b0381116200092157600e54600181811c9116801562000b06575b60208210146200090057601f811162000a9c575b50602092601f821160011462000a31579281929360009262000a25575b50508160011b916000199060031b1c191617600e555b610160810151805191906001600160401b0383116200092157600f54600181811c9116801562000a1a575b60208210146200090057601f8111620009c1575b50602090601f8411600114620009435761018093916000918362000937575b50508160011b916000199060031b1c191617600f555b015180516001600160401b0381116200092157601054600181811c9116801562000916575b60208210146200090057601f811162000896575b50602091601f82116001146200082c5791819260009262000820575b50508160011b916000199060031b1c1916176010555b6040516119489081620010778239f35b015190503880620007fa565b601f19821692601060005260206000209160005b8581106200087d5750836001951062000863575b505050811b0160105562000810565b015160001960f88460031b161c1916905538808062000854565b9192602060018192868501518155019401920162000840565b60106000527f1b6847dc741a1b0cd08d278845f9d819d87b734759afb55fe2de5cb82a9ae672601f830160051c81019160208410620008f5575b601f0160051c01905b818110620008e85750620007de565b60008155600101620008d9565b9091508190620008d0565b634e487b7160e01b600052602260045260246000fd5b90607f1690620007ca565b634e487b7160e01b600052604160045260246000fd5b0151905038806200078f565b600f600090815260008051602062002a1f833981519152929190601f198616905b818110620009a857509160019391866101809794106200098e575b505050811b01600f55620007a5565b015160001960f88460031b161c191690553880806200097f565b9293602060018192878601518155019501930162000964565b600f60005260008051602062002a1f833981519152601f850160051c8101916020861062000a0f575b601f0160051c01905b81811062000a02575062000770565b60008155600101620009f3565b9091508190620009ea565b90607f16906200075c565b0151905038806200071b565b601f19821693600e60005260206000209160005b86811062000a83575083600195961062000a69575b505050811b01600e5562000731565b015160001960f88460031b161c1916905538808062000a5a565b9192602060018192868501518155019401920162000a45565b600e6000527fbb7b4a454dc3493923482f07822329ed19e8244eff582cc204f8554c3620c3fd601f830160051c8101916020841062000afb575b601f0160051c01905b81811062000aee5750620006fe565b6000815560010162000adf565b909150819062000ad6565b90607f1690620006ea565b01519050388062000696565b600b600090815293507f0175b7a638427703f0dbe7bb9bbf987a2551717b34e79f33b5b1008d1fa01db991905b601f198416851062000b90576001945083601f1981161062000b76575b505050811b01600b55620006ac565b015160001960f88460031b161c1916905538808062000b67565b8181015183556020948501946001909301929091019062000b4a565b600b6000529091507f0175b7a638427703f0dbe7bb9bbf987a2551717b34e79f33b5b1008d1fa01db9601f840160051c81016020851062000c16575b90849392915b601f830160051c8201811062000c065750506200067d565b6000815585945060010162000bee565b508062000be8565b91607f169162000667565b0151905038806200061f565b600960009081529350600080516020620029ff83398151915291905b601f198416851062000c97576001945083601f1981161062000c7d575b505050811b0160095562000635565b015160001960f88460031b161c1916905538808062000c6e565b8181015183556020948501946001909301929091019062000c51565b6009600052909150600080516020620029ff833981519152601f840160051c81016020851062000d0c575b90849392915b601f830160051c8201811062000cfc57505062000606565b6000815585945060010162000ce4565b508062000cde565b91607f1691620005f0565b01519050388062000585565b600760009081529350600080516020620029df83398151915291905b601f198416851062000d8d576001945083601f1981161062000d73575b505050811b016007556200059b565b015160001960f88460031b161c1916905538808062000d64565b8181015183556020948501946001909301929091019062000d47565b6007600052909150600080516020620029df833981519152601f840160051c81016020851062000e02575b90849392915b601f830160051c8201811062000df25750506200056c565b6000815585945060010162000dda565b508062000dd4565b91607f169162000556565b01519050388062000503565b6005600090815293507f036b6384b5eca791c62761152d0c79bb0604c104a5fb6f4eb0703f3154bb3db091905b601f198416851062000e94576001945083601f1981161062000e7a575b505050811b0160055562000519565b015160001960f88460031b161c1916905538808062000e6b565b8181015183556020948501946001909301929091019062000e4e565b90915060056000526020600020601f840160051c81016020851062000efe575b90849392915b601f830160051c8201811062000eee575050620004ea565b6000815585945060010162000ed6565b508062000ed0565b91607f1691620004d4565b0151905038806200011f565b6000808052601f19831693600080516020620029bf8339815191529290915b85811062000f795750836001951062000f5f575b505050811b0160005562000135565b015160001960f88460031b161c1916905538808062000f50565b9192602060018192868501518155019401920162000f3c565b60008052600080516020620029bf833981519152601f830160051c8101916020841062000fdf575b601f0160051c01905b81811062000fd2575062000103565b6000815560010162000fc3565b909150819062000fba565b90607f1690620000ef565b80602080928401015182828801015201620000a0565b600080fd5b60408051919082016001600160401b038111838210176200092157604052565b60405190602082016001600160401b038111838210176200092157604052565b6040519190601f01601f191682016001600160401b03811183821017620009215760405256fe608060408181526004918236101561001657600080fd5b600090813560e01c9081632eab9c81146108f9575080634c69c00f146108555780634cecd88e1461068f57806354a470fc146104795780637397454d146103035780637c65d711146102c8578063a89ae4ba146102a0578063c63b0295146102495763daec051f1461008757600080fd5b34610246578160031936011261024657823567ffffffffffffffff8111610242576100b5903690850161099a565b916024359060ff821680920361023e5760025483526101606020946001865282852093336bffffffffffffffffffffffff60a01b8654161785556003850190815487600288015561ffff191617905561015a61014384516101158161092a565b600681526573797374656d60d01b8982015285519061013e8261013781610a89565b0383610978565b61182b565b91610152600187019384610c23565b61013e61105f565b90610c23565b600254916001830180841161022b5760025585548251633c38a5f560e01b8152966001600160a01b039291879189918516908290899082906101a5908b90830161107f565b03925af18015610221579580978596976101ea575b5050907f9697c88a6be3b3ed5062f2dcbd719a10914832320686f14e24f7756210a6685e91541691519480a38152f35b908092939495503d831161021a575b6102038183610978565b81010312610216579083929186386101ba565b8480fd5b503d6101f9565b83513d87823e3d90fd5b634e487b7160e01b855260118752602485fd5b8280fd5b5080fd5b80fd5b50913461023e57602036600319011261023e578160809360ff9235815260016020522060018060a01b03815416926003600283015492015491815194855260208501528282169084015260081c1615156060820152f35b50913461023e578260031936011261023e575490516001600160a01b03909116815260209150f35b50903461024257816003193601126102425780516102ff916102ed8261013781610a89565b51918291602083526020830190610a2a565b0390f35b5090346102425760603660031901126102425767ffffffffffffffff90833560243583811161021657610339903690870161099a565b9260443590811161021657610351903690870161099a565b855490936001600160a01b039161036b90831633146115a4565b828652602094600186528487209160ff600384015460081c16610444579260026103f79695936103cc6103c38b8d966103b48d9a928c51906103ac8261095c565b8152826118bd565b1561043c575b5061013e61105f565b60018301610c23565b016103d7815461160c565b905581541690878551809781958294633c38a5f560e01b8452830161107f565b03925af1908115610433575061040b578280f35b813d831161042c575b61041e8183610978565b810103126102465781808280f35b503d610414565b513d85823e3d90fd5b90508d6103ba565b855162461bcd60e51b8152808a01889052600f60248201526e149d5b881a5cc8199a5b9a5cda1959608a1b6044820152606490fd5b508234610242576020908160031936011261023e57358252600180825283832081018054909491926104aa826117ed565b916104b784519384610978565b8083528183018097875282872087915b8383106105bb575050505082519481860192828752518093528386016005948085871b8901019895835b8685106104fe57898b038af35b909192939495969786819b603f198c82030187528a5182610526825189855289850190610a2a565b91015191838183039101528151808252838201908480828a1b850101940192875b878b84831061056e575050505050505081909a0195019501939695949291909997996104f1565b6105a990899395979992949698601f19888203018a52836105998c5193845190808552840190610a2a565b9201519084818403910152610a2a565b970195019101918c9594939192610547565b968685829b9982979899516105cf8161092a565b83516105e6816105df818a610b2d565b0382610978565b815285850180548e6105f7826117ed565b9261060488519485610978565b828452815285812090888785015b84831061063b5750505050506002945083820152815201920192019190989698959493956104c7565b89600293959799929496989a51906106528261092a565b8051610662816105df818c610b2d565b825251610675816105df81898c01610b2d565b8382015281520193019101908c959391888d989694610612565b50913461023e576003196060368201126108365760243567ffffffffffffffff9384821161083a576101608093833603011261083a578051928301838110868211176108425781528184013585811161083e576106f19085369185010161099a565b8352602482013585811161083e5761070e9085369185010161099a565b6020840152604482013585811161083e5761072e9085369185010161099a565b90830152606481013584811161083a5761074d9084369184010161099a565b60608301526084810135848116810361083a57608083015260a481013584811161083a576107809084369184010161099a565b60a083015260c481013584811161083a576107a09084369184010161099a565b60c083015260e481013584811161083a576107f8916107c76101449286369184010161099a565b60e08501526107d961010482016109f6565b6101008501526107ec61012482016109f6565b610120850152016109f6565b61014082015260443592831161083657610818610833933690840161099a565b9161082d60018060a01b0382541633146115a4565b35611631565b80f35b8380fd5b8580fd5b8680fd5b634e487b7160e01b875260418552602487fd5b50913461023e57602036600319011261023e5780356001600160a01b038181169391849003610216576003541633036108c0575080546001600160a01b031916821790557f107a9fafffb7ac890f780879e423760c9ffea8dcee8045681f40f542aede2cb88280a280f35b906020606492519162461bcd60e51b8352820152601360248201527221b0b63632b91034b9903737ba1037bbb732b960691b6044820152fd5b9050828434610836576020366003190112610836573583526001602090815292206003015460081c60ff1615158152f35b6040810190811067ffffffffffffffff82111761094657604052565b634e487b7160e01b600052604160045260246000fd5b6020810190811067ffffffffffffffff82111761094657604052565b90601f8019910116810190811067ffffffffffffffff82111761094657604052565b81601f820112156109f15780359067ffffffffffffffff821161094657604051926109cf601f8401601f191660200185610978565b828452602083830101116109f157816000926020809301838601378301015290565b600080fd5b359063ffffffff821682036109f157565b60005b838110610a1a5750506000910152565b8181015183820152602001610a0a565b90602091610a4381518092818552858086019101610a07565b601f01601f1916010190565b90600182811c92168015610a7f575b6020831014610a6957565b634e487b7160e01b600052602260045260246000fd5b91607f1691610a5e565b9060009160005490610a9a82610a4f565b80825291600190818116908115610b105750600114610ab857505050565b91929350600080527f290decd9548b62a8d60345a988386fc84ba6bc95484008f6362f93160ef3e563916000925b848410610af857505060209250010190565b80546020858501810191909152909301928101610ae6565b915050602093945060ff929192191683830152151560051b010190565b9060009291805491610b3e83610a4f565b918282526001938481169081600014610ba05750600114610b60575b50505050565b90919394506000526020928360002092846000945b838610610b8c575050505001019038808080610b5a565b805485870183015294019385908201610b75565b9294505050602093945060ff191683830152151560051b01019038808080610b5a565b818110610bce575050565b60008155600101610bc3565b610be48154610a4f565b9081610bee575050565b81601f60009311600114610c00575055565b908083918252610c1f601f60208420940160051c840160018501610bc3565b5555565b908154906801000000000000000090818310156109465760019283810180865581101561104957600094855260209081862090851b0191805180519367ffffffffffffffff9485811161103557818891610c7e879454610a4f565b948b601f9686888211610fff575b5050508490868311600114610f9d578c919083610f92575b5050600019600383901b1c191690831b1781555b019201518051958611610f7e5783908354878555808810610ef6575b50949294019387528287209187945b868610610cf557505050505050505050565b80518051805190848211610e4c578b610d0e8854610a4f565b89888211610eca575b5050508790868311600114610e6b578c919083610e60575b5050600019600383901b1c1916908a1b1785555b8501518051858a0191848211610e4c57928288928d95610d648e9654610a4f565b898111610e16575b508496898311600114610db05795966002969183610da5575b5050600019600383901b1c191690861b1790555b01940195019492610ce3565b015190503880610d85565b9690601f198316848952868920985b818110610dfd57509187989184600299959410610de4575b505050811b019055610d99565b015160001960f88460031b161c19169055388080610dd7565b838301518a5597909801978f978d979384019301610dbf565b610e3d9084895286892060058c808701821c8301938a8810610e43575b01901c0190610bc3565b38610d6c565b93508293610e33565b634e487b7160e01b8c52604160045260248cfd5b015190503880610d2f565b878d52888d209190601f1984168e5b818110610eb5575090848e9594939210610e9c575b505050811b018555610d43565b015160001960f88460031b161c19169055388080610e8f565b828401518555938e0193928b01928b01610e7a565b828a610eee945220600589808701821c8301938d8810610e435701901c0190610bc3565b8b3889610d17565b9091506001600160ff1b038082168203610f6a5787168703610f5657838952848920859291891b810190888a1b015b818110610f325750610cd4565b600291929350610f4181610bda565b610f4c8a8201610bda565b0190859291610f25565b634e487b7160e01b89526011600452602489fd5b634e487b7160e01b8a52601160045260248afd5b634e487b7160e01b88526041600452602488fd5b015190503880610ca4565b838d52858d209190601f1984168e5b818110610fe757509084879594939210610fce575b505050811b018155610cb8565b015160001960f88460031b161c19169055388080610fc1565b8284015185558b988f98909501949384019301610fac565b82866110249452208880860160051c82019289871061102c575b0160051c0190610bc3565b8b3886610c8c565b92508192611019565b634e487b7160e01b89526041600452602489fd5b634e487b7160e01b600052603260045260246000fd5b6040519061106c8261092a565b60048252633ab9b2b960e11b6020830152565b90815260206040818301526101a09182604082015260006005918254946110a586610a4f565b806101e084015260019687811690816000146115865750600114611529575b5060065460000b6060830152603f199081838503016080840152600093600754906110ee82610a4f565b91828252888a8216918260001461150b5750506001146114b1575b505060085463ffffffff811660a0850152861c60000b60c0840152818385030160e08401526000936009549061113e82610a4f565b91828252888a82169182600014611493575050600114611439575b5050600a546101008401528284038201610120840152600b5460009461117e82610a4f565b91828252888a8216918260001461141b5750506001146113c1575b5050600c54610140840152600d546101608401528284038201610180840152600e546000946111c782610a4f565b91828252888a821691826000146113a3575050600114611349575b5050828403820190830152600f546000936111fc82610a4f565b918282528789821691826000146113295750506001146112cb575b50506101c0908284030191015260009360105461123381610a4f565b808452938183169182156112ac575050600114611252575b5050505090565b9293509060106000527f1b6847dc741a1b0cd08d278845f9d819d87b734759afb55fe2de5cb82a9ae67292846000945b838610611298575050505001013880808061124b565b805485870183015294019385908201611282565b925093929495505060ff1916848401521515901b01013880808061124b565b8691929450600f6000527f8d1108e10bcb7c27dddfc02ed9d693a074039d026cf4ea4240b40f7d581ac80290886000925b85841061131357505001019290506101c038611217565b80548385018601528994909301928a91016112fc565b60ff191683820152921515871b90910190910193506101c0905038611217565b87929550600e6000527fbb7b4a454dc3493923482f07822329ed19e8244eff582cc204f8554c3620c3fd91896000935b82851061138d5750505001019238806111e2565b80548585018701528a95909401938b9101611379565b60ff191683820152921515881b9091019091019450389050806111e2565b87929550600b6000527f0175b7a638427703f0dbe7bb9bbf987a2551717b34e79f33b5b1008d1fa01db991896000935b828510611405575050500101923880611199565b80548585018701528a95909401938b91016113f1565b60ff191683820152921515881b909101909101945038905080611199565b8792955060096000527f6e1540171b6c0c960b71a7020d9f60077f6af931a8bbf590da0223dacf75c7af91896000935b82851061147d575050500101923880611159565b80548585018701528a95909401938b9101611469565b60ff191683820152921515881b909101909101945038905080611159565b8792955060076000527fa66cc928b5edb82af9bd49922954155ab7b0942694bea4ce44661d9a8736c68891896000935b8285106114f5575050500101923880611109565b80548585018701528a95909401938b91016114e1565b60ff191683820152921515881b909101909101945038905080611109565b909250836000527f036b6384b5eca791c62761152d0c79bb0604c104a5fb6f4eb0703f3154bb3db085876000925b84841061157057505050610200915082010191386110c4565b8054610200858801015201910190878791611557565b929450506102009160ff1916828401521515841b82010191386110c4565b156115ab57565b60405162461bcd60e51b815260206004820152601460248201527343616c6c6572206973206e6f74206f7261636c6560601b6044820152606490fd5b604051906115f48261092a565b6009825268185cdcda5cdd185b9d60ba1b6020830152565b600019811461161b5760010190565b634e487b7160e01b600052601160045260246000fd5b9190916000908082526020906001825260408084209461165e82516116558161095c565b868152826118bd565b156117b4575060028501805495600381019687549060ff8216111561179f57508488019061169b82518551906116938261095c565b8982526118bd565b15611772575b5050508086016116c081518351906116b88261095c565b8782526118bd565b156116db575050835461ff0019166101001790935550505050565b839550849661172692949395606060018060a01b0360045416935192015196611738875198899687958694634b04236b60e01b86526004860152606060248601526064850190610a2a565b83810360031901604485015290610a2a565b03925af1908115610433575061174d57505050565b813d831161176b575b6117608183610978565b810103126102465750565b503d611756565b600161178461178b935161013e6115e7565b9101610c23565b611795815461160c565b90553880806116a1565b61ff0019166101001790965550505050505050565b915050600394506117cd92506103c3915061013e6115e7565b600281016117db815461160c565b905501805461ff001916610100179055565b67ffffffffffffffff81116109465760051b60200190565b604051906118128261092a565b60606020838281520152565b8051156110495760200190565b90611834611805565b50604051906118428261092a565b6001825260005b60208082101561186b579060209161185f611805565b90828601015201611849565b5050906118b7602091604051946118818661092a565b85526118928386019180835261181e565b51604051906118a08261092a565b60048252631d195e1d60e21b85830152525161181e565b51015290565b90604051916020926118eb8482816118de8183019687815193849201610a07565b8101038084520182610978565b5190209161190b6040519182816118de8183019687815193849201610a07565b519020149056fea26469706673582212206b202e67e542fae01b379dbc69099240b566b8f501a10970be9048ea554a0c7264736f6c63430008140033290decd9548b62a8d60345a988386fc84ba6bc95484008f6362f93160ef3e563a66cc928b5edb82af9bd49922954155ab7b0942694bea4ce44661d9a8736c6886e1540171b6c0c960b71a7020d9f60077f6af931a8bbf590da0223dacf75c7af8d1108e10bcb7c27dddfc02ed9d693a074039d026cf4ea4240b40f7d581ac802a2646970667358221220d8ca76642a11b9a4bd7cefe6ea49b24237cb42e8fd8d71c675eba6805873976364736f6c63430008140033",
  "linkReferences": {},
  "deployedLinkReferences": {}
}